{
  "contractName": "Medishield",
  "abi": [
    {
      "anonymous": false,
      "inputs": [
        {
          "indexed": true,
          "internalType": "address",
          "name": "Admin_Address",
          "type": "address"
        }
      ],
      "name": "AdminAdded",
      "type": "event"
    },
    {
      "anonymous": false,
      "inputs": [
        {
          "indexed": true,
          "internalType": "address",
          "name": "Admin_Address",
          "type": "address"
        }
      ],
      "name": "AdminRemoved",
      "type": "event"
    },
    {
      "anonymous": false,
      "inputs": [
        {
          "indexed": true,
          "internalType": "address",
          "name": "_from",
          "type": "address"
        },
        {
          "indexed": true,
          "internalType": "address",
          "name": "_to",
          "type": "address"
        }
      ],
      "name": "OwnerChanged",
      "type": "event"
    },
    {
      "constant": false,
      "inputs": [
        {
          "internalType": "address",
          "name": "_admin",
          "type": "address"
        }
      ],
      "name": "addAdmin",
      "outputs": [
        {
          "internalType": "bool",
          "name": "",
          "type": "bool"
        }
      ],
      "payable": false,
      "stateMutability": "nonpayable",
      "type": "function"
    },
    {
      "constant": false,
      "inputs": [
        {
          "internalType": "address",
          "name": "_newOwner",
          "type": "address"
        }
      ],
      "name": "changeOwner",
      "outputs": [
        {
          "internalType": "bool",
          "name": "",
          "type": "bool"
        }
      ],
      "payable": false,
      "stateMutability": "nonpayable",
      "type": "function"
    },
    {
      "constant": true,
      "inputs": [],
      "name": "hospitalId",
      "outputs": [
        {
          "internalType": "uint256",
          "name": "",
          "type": "uint256"
        }
      ],
      "payable": false,
      "stateMutability": "view",
      "type": "function"
    },
    {
      "constant": true,
      "inputs": [],
      "name": "organizationId",
      "outputs": [
        {
          "internalType": "uint256",
          "name": "",
          "type": "uint256"
        }
      ],
      "payable": false,
      "stateMutability": "view",
      "type": "function"
    },
    {
      "constant": true,
      "inputs": [],
      "name": "recordId",
      "outputs": [
        {
          "internalType": "uint256",
          "name": "",
          "type": "uint256"
        }
      ],
      "payable": false,
      "stateMutability": "view",
      "type": "function"
    },
    {
      "constant": false,
      "inputs": [
        {
          "internalType": "address",
          "name": "_admin",
          "type": "address"
        }
      ],
      "name": "removeAdmin",
      "outputs": [
        {
          "internalType": "bool",
          "name": "",
          "type": "bool"
        }
      ],
      "payable": false,
      "stateMutability": "nonpayable",
      "type": "function"
    },
    {
      "constant": true,
      "inputs": [],
      "name": "getOwner",
      "outputs": [
        {
          "internalType": "address",
          "name": "",
          "type": "address"
        }
      ],
      "payable": false,
      "stateMutability": "view",
      "type": "function"
    },
    {
      "constant": true,
      "inputs": [
        {
          "internalType": "address",
          "name": "_admin",
          "type": "address"
        }
      ],
      "name": "isAdmin",
      "outputs": [
        {
          "internalType": "bool",
          "name": "",
          "type": "bool"
        }
      ],
      "payable": false,
      "stateMutability": "view",
      "type": "function"
    },
    {
      "constant": false,
      "inputs": [
        {
          "internalType": "string",
          "name": "name",
          "type": "string"
        },
        {
          "internalType": "string",
          "name": "physicalAddress",
          "type": "string"
        },
        {
          "internalType": "address",
          "name": "walletAddress",
          "type": "address"
        },
        {
          "internalType": "string",
          "name": "license",
          "type": "string"
        }
      ],
      "name": "addHospital",
      "outputs": [],
      "payable": false,
      "stateMutability": "nonpayable",
      "type": "function"
    },
    {
      "constant": true,
      "inputs": [
        {
          "internalType": "uint256",
          "name": "_id",
          "type": "uint256"
        }
      ],
      "name": "getHospitalById",
      "outputs": [
        {
          "components": [
            {
              "internalType": "uint256",
              "name": "id",
              "type": "uint256"
            },
            {
              "internalType": "string",
              "name": "name",
              "type": "string"
            },
            {
              "internalType": "string",
              "name": "physicalAddress",
              "type": "string"
            },
            {
              "internalType": "address",
              "name": "walletAddress",
              "type": "address"
            },
            {
              "internalType": "string",
              "name": "License",
              "type": "string"
            }
          ],
          "internalType": "struct Medishield.Hospital",
          "name": "",
          "type": "tuple"
        }
      ],
      "payable": false,
      "stateMutability": "view",
      "type": "function"
    },
    {
      "constant": true,
      "inputs": [
        {
          "internalType": "address",
          "name": "_address",
          "type": "address"
        }
      ],
      "name": "getHospitalByAddress",
      "outputs": [
        {
          "components": [
            {
              "internalType": "uint256",
              "name": "id",
              "type": "uint256"
            },
            {
              "internalType": "string",
              "name": "name",
              "type": "string"
            },
            {
              "internalType": "string",
              "name": "physicalAddress",
              "type": "string"
            },
            {
              "internalType": "address",
              "name": "walletAddress",
              "type": "address"
            },
            {
              "internalType": "string",
              "name": "License",
              "type": "string"
            }
          ],
          "internalType": "struct Medishield.Hospital",
          "name": "",
          "type": "tuple"
        }
      ],
      "payable": false,
      "stateMutability": "view",
      "type": "function"
    },
    {
      "constant": false,
      "inputs": [
        {
          "internalType": "uint256",
          "name": "_hospitalId",
          "type": "uint256"
        },
        {
          "internalType": "uint256",
          "name": "_patientId",
          "type": "uint256"
        },
        {
          "internalType": "string",
          "name": "_condition",
          "type": "string"
        },
        {
          "internalType": "string",
          "name": "_description",
          "type": "string"
        },
        {
          "internalType": "string",
          "name": "_allergies",
          "type": "string"
        },
        {
          "internalType": "string",
          "name": "_document",
          "type": "string"
        }
      ],
      "name": "addNewRecord",
      "outputs": [],
      "payable": false,
      "stateMutability": "nonpayable",
      "type": "function"
    },
    {
      "constant": false,
      "inputs": [
        {
          "internalType": "uint256",
          "name": "_id",
          "type": "uint256"
        },
        {
          "internalType": "string",
          "name": "_name",
          "type": "string"
        },
        {
          "internalType": "string",
          "name": "_gender",
          "type": "string"
        },
        {
          "internalType": "string",
          "name": "_bloodGroup",
          "type": "string"
        },
        {
          "internalType": "string",
          "name": "_dob",
          "type": "string"
        },
        {
          "internalType": "uint256",
          "name": "_phoneNumber",
          "type": "uint256"
        },
        {
          "internalType": "string",
          "name": "_physicalAddress",
          "type": "string"
        },
        {
          "internalType": "string",
          "name": "_profilePicture",
          "type": "string"
        },
        {
          "internalType": "address",
          "name": "_walletAddress",
          "type": "address"
        }
      ],
      "name": "addNewPatient",
      "outputs": [],
      "payable": false,
      "stateMutability": "nonpayable",
      "type": "function"
    },
    {
      "constant": false,
      "inputs": [
        {
          "internalType": "string",
          "name": "_name",
          "type": "string"
        },
        {
          "internalType": "address",
          "name": "_walletAddress",
          "type": "address"
        },
        {
          "internalType": "string",
          "name": "_license",
          "type": "string"
        }
      ],
      "name": "addOrganization",
      "outputs": [],
      "payable": false,
      "stateMutability": "nonpayable",
      "type": "function"
    },
    {
      "constant": true,
      "inputs": [
        {
          "internalType": "uint256",
          "name": "_id",
          "type": "uint256"
        }
      ],
      "name": "getOrganizationById",
      "outputs": [
        {
          "components": [
            {
              "internalType": "uint256",
              "name": "id",
              "type": "uint256"
            },
            {
              "internalType": "string",
              "name": "name",
              "type": "string"
            },
            {
              "internalType": "address",
              "name": "walletAddress",
              "type": "address"
            },
            {
              "internalType": "string",
              "name": "License",
              "type": "string"
            }
          ],
          "internalType": "struct Medishield.Organization",
          "name": "",
          "type": "tuple"
        }
      ],
      "payable": false,
      "stateMutability": "view",
      "type": "function"
    },
    {
      "constant": true,
      "inputs": [
        {
          "internalType": "address",
          "name": "_addr",
          "type": "address"
        }
      ],
      "name": "getOrganizationByAddress",
      "outputs": [
        {
          "components": [
            {
              "internalType": "uint256",
              "name": "id",
              "type": "uint256"
            },
            {
              "internalType": "string",
              "name": "name",
              "type": "string"
            },
            {
              "internalType": "address",
              "name": "walletAddress",
              "type": "address"
            },
            {
              "internalType": "string",
              "name": "License",
              "type": "string"
            }
          ],
          "internalType": "struct Medishield.Organization",
          "name": "",
          "type": "tuple"
        }
      ],
      "payable": false,
      "stateMutability": "view",
      "type": "function"
    },
    {
      "constant": false,
      "inputs": [
        {
          "internalType": "address",
          "name": "addr",
          "type": "address"
        }
      ],
      "name": "addAuthByAddress",
      "outputs": [],
      "payable": false,
      "stateMutability": "nonpayable",
      "type": "function"
    },
    {
      "constant": false,
      "inputs": [
        {
          "internalType": "uint256",
          "name": "_id",
          "type": "uint256"
        }
      ],
      "name": "addAuthById",
      "outputs": [],
      "payable": false,
      "stateMutability": "nonpayable",
      "type": "function"
    },
    {
      "constant": false,
      "inputs": [
        {
          "internalType": "address",
          "name": "addr",
          "type": "address"
        }
      ],
      "name": "revokeAuthByAddress",
      "outputs": [],
      "payable": false,
      "stateMutability": "nonpayable",
      "type": "function"
    },
    {
      "constant": false,
      "inputs": [
        {
          "internalType": "uint256",
          "name": "_id",
          "type": "uint256"
        }
      ],
      "name": "revokeAuthById",
      "outputs": [],
      "payable": false,
      "stateMutability": "nonpayable",
      "type": "function"
    },
    {
      "constant": true,
      "inputs": [
        {
          "internalType": "uint256",
          "name": "_id",
          "type": "uint256"
        }
      ],
      "name": "getPatientDetails",
      "outputs": [
        {
          "internalType": "uint256",
          "name": "",
          "type": "uint256"
        },
        {
          "internalType": "string",
          "name": "",
          "type": "string"
        },
        {
          "internalType": "string",
          "name": "",
          "type": "string"
        },
        {
          "internalType": "string",
          "name": "",
          "type": "string"
        },
        {
          "internalType": "string",
          "name": "",
          "type": "string"
        },
        {
          "internalType": "uint256",
          "name": "",
          "type": "uint256"
        },
        {
          "internalType": "string",
          "name": "",
          "type": "string"
        },
        {
          "internalType": "string",
          "name": "",
          "type": "string"
        },
        {
          "internalType": "address",
          "name": "",
          "type": "address"
        }
      ],
      "payable": false,
      "stateMutability": "view",
      "type": "function"
    },
    {
      "constant": true,
      "inputs": [
        {
          "internalType": "uint256",
          "name": "_id",
          "type": "uint256"
        }
      ],
      "name": "getPatientRecords",
      "outputs": [
        {
          "internalType": "uint256[]",
          "name": "",
          "type": "uint256[]"
        },
        {
          "internalType": "string[]",
          "name": "",
          "type": "string[]"
        },
        {
          "internalType": "string[]",
          "name": "",
          "type": "string[]"
        },
        {
          "internalType": "string[]",
          "name": "",
          "type": "string[]"
        },
        {
          "internalType": "string[]",
          "name": "",
          "type": "string[]"
        }
      ],
      "payable": false,
      "stateMutability": "view",
      "type": "function"
    },
    {
      "constant": true,
      "inputs": [],
      "name": "getHospitals",
      "outputs": [
        {
          "internalType": "uint256[]",
          "name": "",
          "type": "uint256[]"
        },
        {
          "internalType": "string[]",
          "name": "",
          "type": "string[]"
        },
        {
          "internalType": "string[]",
          "name": "",
          "type": "string[]"
        },
        {
          "internalType": "string[]",
          "name": "",
          "type": "string[]"
        }
      ],
      "payable": false,
      "stateMutability": "view",
      "type": "function"
    }
  ],
  "bytecode": "0x6080604052600160025560016003556001600455336000806101000a81548173ffffffffffffffffffffffffffffffffffffffff021916908373ffffffffffffffffffffffffffffffffffffffff16021790555060018060003373ffffffffffffffffffffffffffffffffffffffff1673ffffffffffffffffffffffffffffffffffffffff16815260200190815260200160002060006101000a81548160ff021916908315150217905550615429806100b96000396000f3fe608060405234801561001057600080fd5b506004361061014d5760003560e01c806375d88414116100c35780639e861ae01161007c5780639e861ae0146103df578063a6f9dae1146103fb578063baf1da2d1461042b578063c471dc3a14610447578063dce7e84314610465578063f7dfe22b146104995761014d565b806375d884141461033357806383ce80e11461034f578063893d20e81461036b57806397d4a3de146103895780639b90d2d5146103a55780639d2d428e146103c15761014d565b8063300c601c11610115578063300c601c1461021f57806344125aa61461025757806351928b2c14610287578063635c5455146102b757806370480275146102e75780637516455c146103175761014d565b80631785f53c146101525780631aecb28b1461018257806324d7806c146101a357806324e459c6146101d35780632832163f146101ef575b600080fd5b61016c60048036036101679190810190614226565b6104b7565b6040516101799190614e89565b60405180910390f35b61018a61070f565b60405161019a9493929190614db2565b60405180910390f35b6101bd60048036036101b89190810190614226565b61071b565b6040516101ca9190614e89565b60405180910390f35b6101ed60048036036101e891908101906144f8565b610771565b005b61020960048036036102049190810190614226565b6109be565b6040516102169190615126565b60405180910390f35b61023960048036036102349190810190614379565b610c3b565b60405161024e99989796959493929190615163565b60405180910390f35b610271600480360361026c9190810190614379565b61135c565b60405161027e9190615104565b60405180910390f35b6102a1600480360361029c9190810190614226565b611635565b6040516102ae9190615104565b60405180910390f35b6102d160048036036102cc9190810190614379565b6119d6565b6040516102de9190615126565b60405180910390f35b61030160048036036102fc9190810190614226565b611c01565b60405161030e9190614e89565b60405180910390f35b610331600480360361032c9190810190614379565b611dc8565b005b61034d60048036036103489190810190614226565b6121e6565b005b61036960048036036103649190810190614226565b6123e7565b005b610373612544565b6040516103809190614d97565b60405180910390f35b6103a3600480360361039e91908101906143a2565b61256d565b005b6103bf60048036036103ba919081019061424f565b6128a9565b005b6103c9612af7565b6040516103d69190615148565b60405180910390f35b6103f960048036036103f491908101906142ce565b612afd565b005b61041560048036036104109190810190614226565b612d6f565b6040516104229190614e89565b60405180910390f35b61044560048036036104409190810190614379565b613045565b005b61044f6133bb565b60405161045c9190615148565b60405180910390f35b61047f600480360361047a9190810190614379565b6133c1565b604051610490959493929190614e13565b60405180910390f35b6104a1613f87565b6040516104ae9190615148565b60405180910390f35b60008060009054906101000a900473ffffffffffffffffffffffffffffffffffffffff1673ffffffffffffffffffffffffffffffffffffffff163373ffffffffffffffffffffffffffffffffffffffff1614610548576040517f08c379a000000000000000000000000000000000000000000000000000000000815260040161053f90614ee4565b60405180910390fd5b60011515600160008473ffffffffffffffffffffffffffffffffffffffff1673ffffffffffffffffffffffffffffffffffffffff16815260200190815260200160002060009054906101000a900460ff161515146105db576040517f08c379a00000000000000000000000000000000000000000000000000000000081526004016105d290614f64565b60405180910390fd5b6000809054906101000a900473ffffffffffffffffffffffffffffffffffffffff1673ffffffffffffffffffffffffffffffffffffffff168273ffffffffffffffffffffffffffffffffffffffff16141561066b576040517f08c379a000000000000000000000000000000000000000000000000000000000815260040161066290614fc4565b60405180910390fd5b6000600160008473ffffffffffffffffffffffffffffffffffffffff1673ffffffffffffffffffffffffffffffffffffffff16815260200190815260200160002060006101000a81548160ff0219169083151502179055508173ffffffffffffffffffffffffffffffffffffffff167fa3b62bc36326052d97ea62d63c3d60308ed4c3ea8ac079dd8499f1e9c4f80c0f60405160405180910390a260019050919050565b60608060608090919293565b6000600160008373ffffffffffffffffffffffffffffffffffffffff1673ffffffffffffffffffffffffffffffffffffffff16815260200190815260200160002060009054906101000a900460ff169050919050565b6000600660003373ffffffffffffffffffffffffffffffffffffffff1673ffffffffffffffffffffffffffffffffffffffff168152602001908152602001600020549050600081141580156107dd57506000600560008381526020019081526020016000206000015414155b61081c576040517f08c379a000000000000000000000000000000000000000000000000000000000815260040161081390614f24565b60405180910390fd5b600060086000888152602001908152602001600020600001541415610876576040517f08c379a000000000000000000000000000000000000000000000000000000000815260040161086d90615024565b60405180910390fd5b61087e613f8d565b6040518060e001604052806003548152602001898152602001888152602001878152602001868152602001858152602001848152509050806007600060035481526020019081526020016000206000820151816000015560208201518160010155604082015181600201556060820151816003019080519060200190610905929190613fca565b506080820151816004019080519060200190610922929190613fca565b5060a082015181600501908051906020019061093f929190613fca565b5060c082015181600601908051906020019061095c929190613fca565b509050506008600088815260200190815260200160002060060160035490806001815401808255809150509060018203906000526020600020016000909192909190915055506003600081548092919060010191905055505050505050505050565b6109c661404a565b6000600b60008473ffffffffffffffffffffffffffffffffffffffff1673ffffffffffffffffffffffffffffffffffffffff16815260200190815260200160002054905060008114158015610a3257506000600a60008381526020019081526020016000206000015414155b610a71576040517f08c379a0000000000000000000000000000000000000000000000000000000008152600401610a6890615084565b60405180910390fd5b600a600082815260200190815260200160002060405180608001604052908160008201548152602001600182018054600181600116156101000203166002900480601f016020809104026020016040519081016040528092919081815260200182805460018160011615610100020316600290048015610b325780601f10610b0757610100808354040283529160200191610b32565b820191906000526020600020905b815481529060010190602001808311610b1557829003601f168201915b505050505081526020016002820160009054906101000a900473ffffffffffffffffffffffffffffffffffffffff1673ffffffffffffffffffffffffffffffffffffffff1673ffffffffffffffffffffffffffffffffffffffff168152602001600382018054600181600116156101000203166002900480601f016020809104026020016040519081016040528092919081815260200182805460018160011615610100020316600290048015610c2a5780601f10610bff57610100808354040283529160200191610c2a565b820191906000526020600020905b815481529060010190602001808311610c0d57829003601f168201915b505050505081525050915050919050565b600060608060608060006060806000896000600660003373ffffffffffffffffffffffffffffffffffffffff1673ffffffffffffffffffffffffffffffffffffffff16815260200190815260200160002054905060011515600c600084815260200190815260200160002060003373ffffffffffffffffffffffffffffffffffffffff1673ffffffffffffffffffffffffffffffffffffffff16815260200190815260200160002060009054906101000a900460ff1615151480610d23575060008114158015610d2257506000600560008381526020019081526020016000206000015414155b5b80610d9c575060008214158015610d9b57503373ffffffffffffffffffffffffffffffffffffffff166008600084815260200190815260200160002060090160009054906101000a900473ffffffffffffffffffffffffffffffffffffffff1673ffffffffffffffffffffffffffffffffffffffff16145b5b610ddb576040517f08c379a0000000000000000000000000000000000000000000000000000000008152600401610dd290614ea4565b60405180910390fd5b60008c14158015610e0357506000600860008e81526020019081526020016000206000015414155b610e42576040517f08c379a0000000000000000000000000000000000000000000000000000000008152600401610e3990615004565b60405180910390fd5b610e4a614088565b600860008e81526020019081526020016000206040518061014001604052908160008201548152602001600182018054600181600116156101000203166002900480601f016020809104026020016040519081016040528092919081815260200182805460018160011615610100020316600290048015610f0c5780601f10610ee157610100808354040283529160200191610f0c565b820191906000526020600020905b815481529060010190602001808311610eef57829003601f168201915b50505050508152602001600282018054600181600116156101000203166002900480601f016020809104026020016040519081016040528092919081815260200182805460018160011615610100020316600290048015610fae5780601f10610f8357610100808354040283529160200191610fae565b820191906000526020600020905b815481529060010190602001808311610f9157829003601f168201915b50505050508152602001600382018054600181600116156101000203166002900480601f0160208091040260200160405190810160405280929190818152602001828054600181600116156101000203166002900480156110505780601f1061102557610100808354040283529160200191611050565b820191906000526020600020905b81548152906001019060200180831161103357829003601f168201915b50505050508152602001600482018054600181600116156101000203166002900480601f0160208091040260200160405190810160405280929190818152602001828054600181600116156101000203166002900480156110f25780601f106110c7576101008083540402835291602001916110f2565b820191906000526020600020905b8154815290600101906020018083116110d557829003601f168201915b50505050508152602001600582015481526020016006820180548060200260200160405190810160405280929190818152602001828054801561115457602002820191906000526020600020905b815481526020019060010190808311611140575b50505050508152602001600782018054600181600116156101000203166002900480601f0160208091040260200160405190810160405280929190818152602001828054600181600116156101000203166002900480156111f65780601f106111cb576101008083540402835291602001916111f6565b820191906000526020600020905b8154815290600101906020018083116111d957829003601f168201915b50505050508152602001600882018054600181600116156101000203166002900480601f0160208091040260200160405190810160405280929190818152602001828054600181600116156101000203166002900480156112985780601f1061126d57610100808354040283529160200191611298565b820191906000526020600020905b81548152906001019060200180831161127b57829003601f168201915b505050505081526020016009820160009054906101000a900473ffffffffffffffffffffffffffffffffffffffff1673ffffffffffffffffffffffffffffffffffffffff1673ffffffffffffffffffffffffffffffffffffffff16815250509050806000015181602001518260400151836060015184608001518560a001518660e001518761010001518861012001518797508696508595508494508292508191509b509b509b509b509b509b509b509b509b505050509193959799909294969850565b6113646140f1565b6000600560008481526020019081526020016000206000015414156113be576040517f08c379a00000000000000000000000000000000000000000000000000000000081526004016113b590614fe4565b60405180910390fd5b6113c66140f1565b600560008481526020019081526020016000206040518060a001604052908160008201548152602001600182018054600181600116156101000203166002900480601f0160208091040260200160405190810160405280929190818152602001828054600181600116156101000203166002900480156114875780601f1061145c57610100808354040283529160200191611487565b820191906000526020600020905b81548152906001019060200180831161146a57829003601f168201915b50505050508152602001600282018054600181600116156101000203166002900480601f0160208091040260200160405190810160405280929190818152602001828054600181600116156101000203166002900480156115295780601f106114fe57610100808354040283529160200191611529565b820191906000526020600020905b81548152906001019060200180831161150c57829003601f168201915b505050505081526020016003820160009054906101000a900473ffffffffffffffffffffffffffffffffffffffff1673ffffffffffffffffffffffffffffffffffffffff1673ffffffffffffffffffffffffffffffffffffffff168152602001600482018054600181600116156101000203166002900480601f0160208091040260200160405190810160405280929190818152602001828054600181600116156101000203166002900480156116215780601f106115f657610100808354040283529160200191611621565b820191906000526020600020905b81548152906001019060200180831161160457829003601f168201915b505050505081525050905080915050919050565b61163d6140f1565b6000600660008473ffffffffffffffffffffffffffffffffffffffff1673ffffffffffffffffffffffffffffffffffffffff1681526020019081526020016000205414156116c0576040517f08c379a00000000000000000000000000000000000000000000000000000000081526004016116b790614fe4565b60405180910390fd5b6000600660008473ffffffffffffffffffffffffffffffffffffffff1673ffffffffffffffffffffffffffffffffffffffff16815260200190815260200160002054905060006005600083815260200190815260200160002060000154141561175e576040517f08c379a000000000000000000000000000000000000000000000000000000000815260040161175590614fe4565b60405180910390fd5b6117666140f1565b600560008381526020019081526020016000206040518060a001604052908160008201548152602001600182018054600181600116156101000203166002900480601f0160208091040260200160405190810160405280929190818152602001828054600181600116156101000203166002900480156118275780601f106117fc57610100808354040283529160200191611827565b820191906000526020600020905b81548152906001019060200180831161180a57829003601f168201915b50505050508152602001600282018054600181600116156101000203166002900480601f0160208091040260200160405190810160405280929190818152602001828054600181600116156101000203166002900480156118c95780601f1061189e576101008083540402835291602001916118c9565b820191906000526020600020905b8154815290600101906020018083116118ac57829003601f168201915b505050505081526020016003820160009054906101000a900473ffffffffffffffffffffffffffffffffffffffff1673ffffffffffffffffffffffffffffffffffffffff1673ffffffffffffffffffffffffffffffffffffffff168152602001600482018054600181600116156101000203166002900480601f0160208091040260200160405190810160405280929190818152602001828054600181600116156101000203166002900480156119c15780601f10611996576101008083540402835291602001916119c1565b820191906000526020600020905b8154815290600101906020018083116119a457829003601f168201915b50505050508152505090508092505050919050565b6119de61404a565b6000600a6000848152602001908152602001600020600001541415611a38576040517f08c379a0000000000000000000000000000000000000000000000000000000008152600401611a2f90615084565b60405180910390fd5b600a600083815260200190815260200160002060405180608001604052908160008201548152602001600182018054600181600116156101000203166002900480601f016020809104026020016040519081016040528092919081815260200182805460018160011615610100020316600290048015611af95780601f10611ace57610100808354040283529160200191611af9565b820191906000526020600020905b815481529060010190602001808311611adc57829003601f168201915b505050505081526020016002820160009054906101000a900473ffffffffffffffffffffffffffffffffffffffff1673ffffffffffffffffffffffffffffffffffffffff1673ffffffffffffffffffffffffffffffffffffffff168152602001600382018054600181600116156101000203166002900480601f016020809104026020016040519081016040528092919081815260200182805460018160011615610100020316600290048015611bf15780601f10611bc657610100808354040283529160200191611bf1565b820191906000526020600020905b815481529060010190602001808311611bd457829003601f168201915b5050505050815250509050919050565b60008060009054906101000a900473ffffffffffffffffffffffffffffffffffffffff1673ffffffffffffffffffffffffffffffffffffffff163373ffffffffffffffffffffffffffffffffffffffff1614611c92576040517f08c379a0000000000000000000000000000000000000000000000000000000008152600401611c8990614ee4565b60405180910390fd5b60001515600160008473ffffffffffffffffffffffffffffffffffffffff1673ffffffffffffffffffffffffffffffffffffffff16815260200190815260200160002060009054906101000a900460ff16151514611d25576040517f08c379a0000000000000000000000000000000000000000000000000000000008152600401611d1c90614f04565b60405180910390fd5b60018060008473ffffffffffffffffffffffffffffffffffffffff1673ffffffffffffffffffffffffffffffffffffffff16815260200190815260200160002060006101000a81548160ff0219169083151502179055508173ffffffffffffffffffffffffffffffffffffffff167f44d6d25963f097ad14f29f06854a01f575648a1ef82f30e562ccd3889717e33960405160405180910390a260019050919050565b6000600960003373ffffffffffffffffffffffffffffffffffffffff1673ffffffffffffffffffffffffffffffffffffffff16815260200190815260200160002054905060008114158015611e3457506000600860008381526020019081526020016000206000015414155b611e73576040517f08c379a0000000000000000000000000000000000000000000000000000000008152600401611e6a906150a4565b60405180910390fd5b611e7b61404a565b600a600084815260200190815260200160002060405180608001604052908160008201548152602001600182018054600181600116156101000203166002900480601f016020809104026020016040519081016040528092919081815260200182805460018160011615610100020316600290048015611f3c5780601f10611f1157610100808354040283529160200191611f3c565b820191906000526020600020905b815481529060010190602001808311611f1f57829003601f168201915b505050505081526020016002820160009054906101000a900473ffffffffffffffffffffffffffffffffffffffff1673ffffffffffffffffffffffffffffffffffffffff1673ffffffffffffffffffffffffffffffffffffffff168152602001600382018054600181600116156101000203166002900480601f0160208091040260200160405190810160405280929190818152602001828054600181600116156101000203166002900480156120345780601f1061200957610100808354040283529160200191612034565b820191906000526020600020905b81548152906001019060200180831161201757829003601f168201915b5050505050815250509050600081600001511415612087576040517f08c379a000000000000000000000000000000000000000000000000000000000815260040161207e90615044565b60405180910390fd5b6000600960003373ffffffffffffffffffffffffffffffffffffffff1673ffffffffffffffffffffffffffffffffffffffff16815260200190815260200160002054905060011515600c60008381526020019081526020016000206000846040015173ffffffffffffffffffffffffffffffffffffffff1673ffffffffffffffffffffffffffffffffffffffff16815260200190815260200160002060009054906101000a900460ff16151514612173576040517f08c379a000000000000000000000000000000000000000000000000000000000815260040161216a90614fa4565b60405180910390fd5b6000600c60008381526020019081526020016000206000846040015173ffffffffffffffffffffffffffffffffffffffff1673ffffffffffffffffffffffffffffffffffffffff16815260200190815260200160002060006101000a81548160ff02191690831515021790555050505050565b6000600960003373ffffffffffffffffffffffffffffffffffffffff1673ffffffffffffffffffffffffffffffffffffffff1681526020019081526020016000205490506000811415801561225257506000600860008381526020019081526020016000206000015414155b612291576040517f08c379a0000000000000000000000000000000000000000000000000000000008152600401612288906150a4565b60405180910390fd5b6000600960003373ffffffffffffffffffffffffffffffffffffffff1673ffffffffffffffffffffffffffffffffffffffff16815260200190815260200160002054905060011515600c600083815260200190815260200160002060008573ffffffffffffffffffffffffffffffffffffffff1673ffffffffffffffffffffffffffffffffffffffff16815260200190815260200160002060009054906101000a900460ff16151514612379576040517f08c379a000000000000000000000000000000000000000000000000000000000815260040161237090614fa4565b60405180910390fd5b6000600c600083815260200190815260200160002060008573ffffffffffffffffffffffffffffffffffffffff1673ffffffffffffffffffffffffffffffffffffffff16815260200190815260200160002060006101000a81548160ff021916908315150217905550505050565b6000600960003373ffffffffffffffffffffffffffffffffffffffff1673ffffffffffffffffffffffffffffffffffffffff1681526020019081526020016000205490506000811415801561245357506000600860008381526020019081526020016000206000015414155b612492576040517f08c379a0000000000000000000000000000000000000000000000000000000008152600401612489906150a4565b60405180910390fd5b6000600960003373ffffffffffffffffffffffffffffffffffffffff1673ffffffffffffffffffffffffffffffffffffffff1681526020019081526020016000205490506001600c600083815260200190815260200160002060008573ffffffffffffffffffffffffffffffffffffffff1673ffffffffffffffffffffffffffffffffffffffff16815260200190815260200160002060006101000a81548160ff021916908315150217905550505050565b60008060009054906101000a900473ffffffffffffffffffffffffffffffffffffffff16905090565b6000600660003373ffffffffffffffffffffffffffffffffffffffff1673ffffffffffffffffffffffffffffffffffffffff168152602001908152602001600020549050600081141580156125d957506000600560008381526020019081526020016000206000015414155b612618576040517f08c379a000000000000000000000000000000000000000000000000000000000815260040161260f90614f24565b60405180910390fd5b6000600860008c81526020019081526020016000206000015414801561267d57506000600960008473ffffffffffffffffffffffffffffffffffffffff1673ffffffffffffffffffffffffffffffffffffffff16815260200190815260200160002054145b6126bc576040517f08c379a00000000000000000000000000000000000000000000000000000000081526004016126b3906150c4565b60405180910390fd5b60608a600960008573ffffffffffffffffffffffffffffffffffffffff1673ffffffffffffffffffffffffffffffffffffffff168152602001908152602001600020819055506040518061014001604052808c81526020018b81526020018a81526020018981526020018881526020018781526020018281526020018681526020018581526020018473ffffffffffffffffffffffffffffffffffffffff16815250600860008d8152602001908152602001600020600082015181600001556020820151816001019080519060200190612797929190613fca565b5060408201518160020190805190602001906127b4929190613fca565b5060608201518160030190805190602001906127d1929190613fca565b5060808201518160040190805190602001906127ee929190613fca565b5060a0820151816005015560c0820151816006019080519060200190612815929190614136565b5060e0820151816007019080519060200190612832929190613fca565b50610100820151816008019080519060200190612850929190613fca565b506101208201518160090160006101000a81548173ffffffffffffffffffffffffffffffffffffffff021916908373ffffffffffffffffffffffffffffffffffffffff1602179055509050505050505050505050505050565b60011515600160003373ffffffffffffffffffffffffffffffffffffffff1673ffffffffffffffffffffffffffffffffffffffff16815260200190815260200160002060009054906101000a900460ff1615151461293c576040517f08c379a000000000000000000000000000000000000000000000000000000000815260040161293390615064565b60405180910390fd5b6000600b60008473ffffffffffffffffffffffffffffffffffffffff1673ffffffffffffffffffffffffffffffffffffffff16815260200190815260200160002054146129be576040517f08c379a00000000000000000000000000000000000000000000000000000000081526004016129b590614f84565b60405180910390fd5b604051806080016040528060045481526020018481526020018373ffffffffffffffffffffffffffffffffffffffff16815260200182815250600a60006004548152602001908152602001600020600082015181600001556020820151816001019080519060200190612a32929190613fca565b5060408201518160020160006101000a81548173ffffffffffffffffffffffffffffffffffffffff021916908373ffffffffffffffffffffffffffffffffffffffff1602179055506060820151816003019080519060200190612a96929190613fca565b50905050600454600b60008473ffffffffffffffffffffffffffffffffffffffff1673ffffffffffffffffffffffffffffffffffffffff16815260200190815260200160002081905550600460008154809291906001019190505550505050565b60025481565b60011515600160003373ffffffffffffffffffffffffffffffffffffffff1673ffffffffffffffffffffffffffffffffffffffff16815260200190815260200160002060009054906101000a900460ff16151514612b90576040517f08c379a0000000000000000000000000000000000000000000000000000000008152600401612b8790615064565b60405180910390fd5b6000600660008473ffffffffffffffffffffffffffffffffffffffff1673ffffffffffffffffffffffffffffffffffffffff1681526020019081526020016000205414612c12576040517f08c379a0000000000000000000000000000000000000000000000000000000008152600401612c0990614ec4565b60405180910390fd5b6040518060a0016040528060025481526020018581526020018481526020018373ffffffffffffffffffffffffffffffffffffffff16815260200182815250600560006002548152602001908152602001600020600082015181600001556020820151816001019080519060200190612c8c929190613fca565b506040820151816002019080519060200190612ca9929190613fca565b5060608201518160030160006101000a81548173ffffffffffffffffffffffffffffffffffffffff021916908373ffffffffffffffffffffffffffffffffffffffff1602179055506080820151816004019080519060200190612d0d929190613fca565b50905050600254600660008473ffffffffffffffffffffffffffffffffffffffff1673ffffffffffffffffffffffffffffffffffffffff1681526020019081526020016000208190555060026000815480929190600101919050555050505050565b60008060009054906101000a900473ffffffffffffffffffffffffffffffffffffffff1673ffffffffffffffffffffffffffffffffffffffff163373ffffffffffffffffffffffffffffffffffffffff1614612e00576040517f08c379a0000000000000000000000000000000000000000000000000000000008152600401612df790614ee4565b60405180910390fd5b6000809054906101000a900473ffffffffffffffffffffffffffffffffffffffff1673ffffffffffffffffffffffffffffffffffffffff168273ffffffffffffffffffffffffffffffffffffffff161415612e90576040517f08c379a0000000000000000000000000000000000000000000000000000000008152600401612e87906150e4565b60405180910390fd5b6000600160008060009054906101000a900473ffffffffffffffffffffffffffffffffffffffff1673ffffffffffffffffffffffffffffffffffffffff1673ffffffffffffffffffffffffffffffffffffffff16815260200190815260200160002060006101000a81548160ff021916908315150217905550816000806101000a81548173ffffffffffffffffffffffffffffffffffffffff021916908373ffffffffffffffffffffffffffffffffffffffff16021790555060018060008060009054906101000a900473ffffffffffffffffffffffffffffffffffffffff1673ffffffffffffffffffffffffffffffffffffffff1673ffffffffffffffffffffffffffffffffffffffff16815260200190815260200160002060006101000a81548160ff0219169083151502179055506000809054906101000a900473ffffffffffffffffffffffffffffffffffffffff1673ffffffffffffffffffffffffffffffffffffffff163373ffffffffffffffffffffffffffffffffffffffff167fb532073b38c83145e3e5135377a08bf9aab55bc0fd7c1179cd4fb995d2a5159c60405160405180910390a360019050919050565b6000600960003373ffffffffffffffffffffffffffffffffffffffff1673ffffffffffffffffffffffffffffffffffffffff168152602001908152602001600020549050600081141580156130b157506000600860008381526020019081526020016000206000015414155b6130f0576040517f08c379a00000000000000000000000000000000000000000000000000000000081526004016130e7906150a4565b60405180910390fd5b6130f861404a565b600a600084815260200190815260200160002060405180608001604052908160008201548152602001600182018054600181600116156101000203166002900480601f0160208091040260200160405190810160405280929190818152602001828054600181600116156101000203166002900480156131b95780601f1061318e576101008083540402835291602001916131b9565b820191906000526020600020905b81548152906001019060200180831161319c57829003601f168201915b505050505081526020016002820160009054906101000a900473ffffffffffffffffffffffffffffffffffffffff1673ffffffffffffffffffffffffffffffffffffffff1673ffffffffffffffffffffffffffffffffffffffff168152602001600382018054600181600116156101000203166002900480601f0160208091040260200160405190810160405280929190818152602001828054600181600116156101000203166002900480156132b15780601f10613286576101008083540402835291602001916132b1565b820191906000526020600020905b81548152906001019060200180831161329457829003601f168201915b5050505050815250509050600081600001511415613304576040517f08c379a00000000000000000000000000000000000000000000000000000000081526004016132fb90615044565b60405180910390fd5b6000600960003373ffffffffffffffffffffffffffffffffffffffff1673ffffffffffffffffffffffffffffffffffffffff1681526020019081526020016000205490506001600c60008381526020019081526020016000206000846040015173ffffffffffffffffffffffffffffffffffffffff1673ffffffffffffffffffffffffffffffffffffffff16815260200190815260200160002060006101000a81548160ff02191690831515021790555050505050565b60045481565b6060806060806060856000600660003373ffffffffffffffffffffffffffffffffffffffff1673ffffffffffffffffffffffffffffffffffffffff16815260200190815260200160002054905060011515600c600084815260200190815260200160002060003373ffffffffffffffffffffffffffffffffffffffff1673ffffffffffffffffffffffffffffffffffffffff16815260200190815260200160002060009054906101000a900460ff16151514806134a25750600081141580156134a157506000600560008381526020019081526020016000206000015414155b5b8061351b57506000821415801561351a57503373ffffffffffffffffffffffffffffffffffffffff166008600084815260200190815260200160002060090160009054906101000a900473ffffffffffffffffffffffffffffffffffffffff1673ffffffffffffffffffffffffffffffffffffffff16145b5b61355a576040517f08c379a000000000000000000000000000000000000000000000000000000000815260040161355190614ea4565b60405180910390fd5b613562614088565b600860008a81526020019081526020016000206040518061014001604052908160008201548152602001600182018054600181600116156101000203166002900480601f0160208091040260200160405190810160405280929190818152602001828054600181600116156101000203166002900480156136245780601f106135f957610100808354040283529160200191613624565b820191906000526020600020905b81548152906001019060200180831161360757829003601f168201915b50505050508152602001600282018054600181600116156101000203166002900480601f0160208091040260200160405190810160405280929190818152602001828054600181600116156101000203166002900480156136c65780601f1061369b576101008083540402835291602001916136c6565b820191906000526020600020905b8154815290600101906020018083116136a957829003601f168201915b50505050508152602001600382018054600181600116156101000203166002900480601f0160208091040260200160405190810160405280929190818152602001828054600181600116156101000203166002900480156137685780601f1061373d57610100808354040283529160200191613768565b820191906000526020600020905b81548152906001019060200180831161374b57829003601f168201915b50505050508152602001600482018054600181600116156101000203166002900480601f01602080910402602001604051908101604052809291908181526020018280546001816001161561010002031660029004801561380a5780601f106137df5761010080835404028352916020019161380a565b820191906000526020600020905b8154815290600101906020018083116137ed57829003601f168201915b50505050508152602001600582015481526020016006820180548060200260200160405190810160405280929190818152602001828054801561386c57602002820191906000526020600020905b815481526020019060010190808311613858575b50505050508152602001600782018054600181600116156101000203166002900480601f01602080910402602001604051908101604052809291908181526020018280546001816001161561010002031660029004801561390e5780601f106138e35761010080835404028352916020019161390e565b820191906000526020600020905b8154815290600101906020018083116138f157829003601f168201915b50505050508152602001600882018054600181600116156101000203166002900480601f0160208091040260200160405190810160405280929190818152602001828054600181600116156101000203166002900480156139b05780601f10613985576101008083540402835291602001916139b0565b820191906000526020600020905b81548152906001019060200180831161399357829003601f168201915b505050505081526020016009820160009054906101000a900473ffffffffffffffffffffffffffffffffffffffff1673ffffffffffffffffffffffffffffffffffffffff1673ffffffffffffffffffffffffffffffffffffffff1681525050905060008914158015613a2757506000816000015114155b613a66576040517f08c379a0000000000000000000000000000000000000000000000000000000008152600401613a5d90615004565b60405180910390fd5b60008160c001515111613aae576040517f08c379a0000000000000000000000000000000000000000000000000000000008152600401613aa590614f44565b60405180910390fd5b60008160c0015151905060608260c001519050606082604051908082528060200260200182016040528015613af25781602001602082028038833980820191505090505b509050606083604051908082528060200260200182016040528015613b2b57816020015b6060815260200190600190039081613b165790505b509050606084604051908082528060200260200182016040528015613b6457816020015b6060815260200190600190039081613b4f5790505b509050606085604051908082528060200260200182016040528015613b9d57816020015b6060815260200190600190039081613b885790505b509050606086604051908082528060200260200182016040528015613bd657816020015b6060815260200190600190039081613bc15790505b50905060008090505b8651811015613f6457613bf0613f8d565b60076000898481518110613c0057fe5b602002602001015181526020019081526020016000206040518060e0016040529081600082015481526020016001820154815260200160028201548152602001600382018054600181600116156101000203166002900480601f016020809104026020016040519081016040528092919081815260200182805460018160011615610100020316600290048015613cd85780601f10613cad57610100808354040283529160200191613cd8565b820191906000526020600020905b815481529060010190602001808311613cbb57829003601f168201915b50505050508152602001600482018054600181600116156101000203166002900480601f016020809104026020016040519081016040528092919081815260200182805460018160011615610100020316600290048015613d7a5780601f10613d4f57610100808354040283529160200191613d7a565b820191906000526020600020905b815481529060010190602001808311613d5d57829003601f168201915b50505050508152602001600582018054600181600116156101000203166002900480601f016020809104026020016040519081016040528092919081815260200182805460018160011615610100020316600290048015613e1c5780601f10613df157610100808354040283529160200191613e1c565b820191906000526020600020905b815481529060010190602001808311613dff57829003601f168201915b50505050508152602001600682018054600181600116156101000203166002900480601f016020809104026020016040519081016040528092919081815260200182805460018160011615610100020316600290048015613ebe5780601f10613e9357610100808354040283529160200191613ebe565b820191906000526020600020905b815481529060010190602001808311613ea157829003601f168201915b50505050508152505090508060200151878381518110613eda57fe5b6020026020010181815250508060600151868381518110613ef757fe5b60200260200101819052508060800151858381518110613f1357fe5b60200260200101819052508060a00151848381518110613f2f57fe5b60200260200101819052508060c00151838381518110613f4b57fe5b6020026020010181905250508080600101915050613bdf565b5084848484849e509e509e509e509e505050505050505050505091939590929450565b60035481565b6040518060e00160405280600081526020016000815260200160008152602001606081526020016060815260200160608152602001606081525090565b828054600181600116156101000203166002900490600052602060002090601f016020900481019282601f1061400b57805160ff1916838001178555614039565b82800160010185558215614039579182015b8281111561403857825182559160200191906001019061401d565b5b5090506140469190614183565b5090565b60405180608001604052806000815260200160608152602001600073ffffffffffffffffffffffffffffffffffffffff168152602001606081525090565b604051806101400160405280600081526020016060815260200160608152602001606081526020016060815260200160008152602001606081526020016060815260200160608152602001600073ffffffffffffffffffffffffffffffffffffffff1681525090565b6040518060a00160405280600081526020016060815260200160608152602001600073ffffffffffffffffffffffffffffffffffffffff168152602001606081525090565b828054828255906000526020600020908101928215614172579160200282015b82811115614171578251825591602001919060010190614156565b5b50905061417f9190614183565b5090565b6141a591905b808211156141a1576000816000905550600101614189565b5090565b90565b6000813590506141b7816153b8565b92915050565b600082601f8301126141ce57600080fd5b81356141e16141dc82615247565b61521a565b915080825260208301602083018583830111156141fd57600080fd5b614208838284615365565b50505092915050565b600081359050614220816153cf565b92915050565b60006020828403121561423857600080fd5b6000614246848285016141a8565b91505092915050565b60008060006060848603121561426457600080fd5b600084013567ffffffffffffffff81111561427e57600080fd5b61428a868287016141bd565b935050602061429b868287016141a8565b925050604084013567ffffffffffffffff8111156142b857600080fd5b6142c4868287016141bd565b9150509250925092565b600080600080608085870312156142e457600080fd5b600085013567ffffffffffffffff8111156142fe57600080fd5b61430a878288016141bd565b945050602085013567ffffffffffffffff81111561432757600080fd5b614333878288016141bd565b9350506040614344878288016141a8565b925050606085013567ffffffffffffffff81111561436157600080fd5b61436d878288016141bd565b91505092959194509250565b60006020828403121561438b57600080fd5b600061439984828501614211565b91505092915050565b60008060008060008060008060006101208a8c0312156143c157600080fd5b60006143cf8c828d01614211565b99505060208a013567ffffffffffffffff8111156143ec57600080fd5b6143f88c828d016141bd565b98505060408a013567ffffffffffffffff81111561441557600080fd5b6144218c828d016141bd565b97505060608a013567ffffffffffffffff81111561443e57600080fd5b61444a8c828d016141bd565b96505060808a013567ffffffffffffffff81111561446757600080fd5b6144738c828d016141bd565b95505060a06144848c828d01614211565b94505060c08a013567ffffffffffffffff8111156144a157600080fd5b6144ad8c828d016141bd565b93505060e08a013567ffffffffffffffff8111156144ca57600080fd5b6144d68c828d016141bd565b9250506101006144e88c828d016141a8565b9150509295985092959850929598565b60008060008060008060c0878903121561451157600080fd5b600061451f89828a01614211565b965050602061453089828a01614211565b955050604087013567ffffffffffffffff81111561454d57600080fd5b61455989828a016141bd565b945050606087013567ffffffffffffffff81111561457657600080fd5b61458289828a016141bd565b935050608087013567ffffffffffffffff81111561459f57600080fd5b6145ab89828a016141bd565b92505060a087013567ffffffffffffffff8111156145c857600080fd5b6145d489828a016141bd565b9150509295509295509295565b60006145ed8383614746565b905092915050565b60006146018383614d79565b60208301905092915050565b6146168161531d565b82525050565b6146258161531d565b82525050565b600061463682615293565b61464081856152d9565b93508360208202850161465285615273565b8060005b8581101561468e578484038952815161466f85826145e1565b945061467a836152bf565b925060208a01995050600181019050614656565b50829750879550505050505092915050565b60006146ab8261529e565b6146b581856152ea565b93506146c083615283565b8060005b838110156146f15781516146d888826145f5565b97506146e3836152cc565b9250506001810190506146c4565b5085935050505092915050565b6147078161532f565b82525050565b6000614718826152b4565b614722818561530c565b9350614732818560208601615374565b61473b816153a7565b840191505092915050565b6000614751826152a9565b61475b81856152fb565b935061476b818560208601615374565b614774816153a7565b840191505092915050565b600061478c60198361530c565b91507f4f6e6c7920617574686f726973656420616464726573736564000000000000006000830152602082019050919050565b60006147cc60218361530c565b91507f416c7265616479207265676973746572656420617320616e20686f737069746160008301527f6c000000000000000000000000000000000000000000000000000000000000006020830152604082019050919050565b6000614832600a8361530c565b91507f4f6e6c79206f776e6572000000000000000000000000000000000000000000006000830152602082019050919050565b600061487260188361530c565b91507f596f752061726520616c726561647920616e2061646d696e00000000000000006000830152602082019050919050565b60006148b2601a8361530c565b91507f4f6e6c7920686f73706974616c732061726520616c6c6f7765640000000000006000830152602082019050919050565b60006148f2600f8361530c565b91507f4e6f207265636f726420666f756e6400000000000000000000000000000000006000830152602082019050919050565b600061493260198361530c565b91507f596f7520617265206e6f742061646d696e20616c7265616479000000000000006000830152602082019050919050565b6000614972601b8361530c565b91507f4f7267616e697a6174696f6e20616c72656164792065786973747300000000006000830152602082019050919050565b60006149b260168361530c565b91507f416c7265616479206e6f7420617574686f7269736564000000000000000000006000830152602082019050919050565b60006149f260238361530c565b91507f4f776e65722063616e6e6f742062652072656d6f76656420617320616e20616460008301527f6d696e00000000000000000000000000000000000000000000000000000000006020830152604082019050919050565b6000614a5860178361530c565b91507f4e6f207375636820686f73706974616c206578697374730000000000000000006000830152602082019050919050565b6000614a9860158361530c565b91507f4e6f20737563682070617469656e7420666f756e6400000000000000000000006000830152602082019050919050565b6000614ad8601a8361530c565b91507f5468652070617469656e7420646f6573206e6f742065786973740000000000006000830152602082019050919050565b6000614b18601a8361530c565b91507f4e6f2073756368206f7267616e697a6174696f6e20666f756e640000000000006000830152602082019050919050565b6000614b58600a8361530c565b91507f4f6e6c792041646d696e000000000000000000000000000000000000000000006000830152602082019050919050565b6000614b98601b8361530c565b91507f4e6f2073756368206f7267616e697a6174696f6e2065786973747300000000006000830152602082019050919050565b6000614bd860178361530c565b91507f4f6e6c792070617469656e7420697320616c6c6f7765640000000000000000006000830152602082019050919050565b6000614c1860168361530c565b91507f50617469656e7420616c726561647920657869737473000000000000000000006000830152602082019050919050565b6000614c5860198361530c565b91507f596f752061726520746865206f776e657220616c7265616479000000000000006000830152602082019050919050565b600060a083016000830151614ca36000860182614d79565b5060208301518482036020860152614cbb8282614746565b91505060408301518482036040860152614cd58282614746565b9150506060830151614cea606086018261460d565b5060808301518482036080860152614d028282614746565b9150508091505092915050565b6000608083016000830151614d276000860182614d79565b5060208301518482036020860152614d3f8282614746565b9150506040830151614d54604086018261460d565b5060608301518482036060860152614d6c8282614746565b9150508091505092915050565b614d828161535b565b82525050565b614d918161535b565b82525050565b6000602082019050614dac600083018461461c565b92915050565b60006080820190508181036000830152614dcc81876146a0565b90508181036020830152614de0818661462b565b90508181036040830152614df4818561462b565b90508181036060830152614e08818461462b565b905095945050505050565b600060a0820190508181036000830152614e2d81886146a0565b90508181036020830152614e41818761462b565b90508181036040830152614e55818661462b565b90508181036060830152614e69818561462b565b90508181036080830152614e7d818461462b565b90509695505050505050565b6000602082019050614e9e60008301846146fe565b92915050565b60006020820190508181036000830152614ebd8161477f565b9050919050565b60006020820190508181036000830152614edd816147bf565b9050919050565b60006020820190508181036000830152614efd81614825565b9050919050565b60006020820190508181036000830152614f1d81614865565b9050919050565b60006020820190508181036000830152614f3d816148a5565b9050919050565b60006020820190508181036000830152614f5d816148e5565b9050919050565b60006020820190508181036000830152614f7d81614925565b9050919050565b60006020820190508181036000830152614f9d81614965565b9050919050565b60006020820190508181036000830152614fbd816149a5565b9050919050565b60006020820190508181036000830152614fdd816149e5565b9050919050565b60006020820190508181036000830152614ffd81614a4b565b9050919050565b6000602082019050818103600083015261501d81614a8b565b9050919050565b6000602082019050818103600083015261503d81614acb565b9050919050565b6000602082019050818103600083015261505d81614b0b565b9050919050565b6000602082019050818103600083015261507d81614b4b565b9050919050565b6000602082019050818103600083015261509d81614b8b565b9050919050565b600060208201905081810360008301526150bd81614bcb565b9050919050565b600060208201905081810360008301526150dd81614c0b565b9050919050565b600060208201905081810360008301526150fd81614c4b565b9050919050565b6000602082019050818103600083015261511e8184614c8b565b905092915050565b600060208201905081810360008301526151408184614d0f565b905092915050565b600060208201905061515d6000830184614d88565b92915050565b600061012082019050615179600083018c614d88565b818103602083015261518b818b61470d565b9050818103604083015261519f818a61470d565b905081810360608301526151b3818961470d565b905081810360808301526151c7818861470d565b90506151d660a0830187614d88565b81810360c08301526151e8818661470d565b905081810360e08301526151fc818561470d565b905061520c61010083018461461c565b9a9950505050505050505050565b6000604051905081810181811067ffffffffffffffff8211171561523d57600080fd5b8060405250919050565b600067ffffffffffffffff82111561525e57600080fd5b601f19601f8301169050602081019050919050565b6000819050602082019050919050565b6000819050602082019050919050565b600081519050919050565b600081519050919050565b600081519050919050565b600081519050919050565b6000602082019050919050565b6000602082019050919050565b600082825260208201905092915050565b600082825260208201905092915050565b600082825260208201905092915050565b600082825260208201905092915050565b60006153288261533b565b9050919050565b60008115159050919050565b600073ffffffffffffffffffffffffffffffffffffffff82169050919050565b6000819050919050565b82818337600083830152505050565b60005b83811015615392578082015181840152602081019050615377565b838111156153a1576000848401525b50505050565b6000601f19601f8301169050919050565b6153c18161531d565b81146153cc57600080fd5b50565b6153d88161535b565b81146153e357600080fd5b5056fea365627a7a723158202dbd964f751aaf20fa67c95c7c24e62d19deb256fcdabfdc048523a9f18e79e16c6578706572696d656e74616cf564736f6c63430005100040",
  "source": "// SPDX-License-Identifier: MIT\npragma solidity >=0.4.22 <0.9.0;\npragma experimental ABIEncoderV2;\n\nimport {Ownable} from \"./Ownable.sol\";\n\ncontract Medishield is Ownable {\n    struct Hospital {\n        uint256 id;\n        string name;\n        string physicalAddress;\n        address walletAddress;\n        string License;\n    }\n\n    struct Record {\n        uint256 id;\n        uint256 hospitalId;\n        uint256 patientId;\n        string condition;\n        string description;\n        string allergies;\n        string Document;\n    }\n\n    struct Patient {\n        uint256 id;\n        string name;\n        string gender;\n        string bloodGroup;\n        string DOB;\n        uint256 phoneNumber;\n        uint256[] records;\n        string physicalAddress;\n        string profilePicture;\n        address walletAddress;\n    }\n\n    struct Organization {\n        uint256 id;\n        string name;\n        address walletAddress;\n        string License;\n    }\n\n    uint256 public hospitalId = 1;\n    uint256 public recordId = 1;\n    uint256 public organizationId = 1;\n\n  \n    mapping(uint256 => Hospital) private hospitals;\n\n    \n    mapping(address => uint256) private hospitalToId;\n\n    mapping(uint256 => Record) private records;\n\n\n    mapping(uint256 => Patient) private patients;\n\n    mapping(address => uint256) private patientToId;\n\n \n    mapping(uint256 => Organization) private organizations;\n\n  \n    mapping(address => uint256) private organizationToId;\n\n   \n    mapping(uint256 => mapping(address => bool)) private authorised;\n\n   \n    function getOwner() public view returns (address) {\n        return owner;\n    }\n\n  \n    function isAdmin(address _admin) public view returns (bool) {\n        return admin[_admin];\n    }\n\n    \n    function addHospital(\n        string memory name,\n        string memory physicalAddress,\n        address walletAddress,\n        string memory license\n    ) public onlyAdmin {\n        require(\n            hospitalToId[walletAddress] == 0,\n            \"Already registered as an hospital\"\n        );\n        hospitals[hospitalId] = Hospital(\n            hospitalId,\n            name,\n            physicalAddress,\n            walletAddress,\n            license\n        );\n        hospitalToId[walletAddress] = hospitalId;\n        hospitalId++;\n    }\n\n    function getHospitalById(uint256 _id)\n        public\n        view\n        returns (Hospital memory)\n    {\n        require(hospitals[_id].id != 0, \"No such hospital exists\");\n        Hospital memory hosp = hospitals[_id];\n        return hosp;\n    }\n\n   \n    function getHospitalByAddress(address _address)\n        public\n        view\n        returns (Hospital memory)\n    {\n        require(hospitalToId[_address] != 0, \"No such hospital exists\");\n        uint256 _id = hospitalToId[_address];\n        require(hospitals[_id].id != 0, \"No such hospital exists\");\n        Hospital memory hosp = hospitals[_id];\n        return hosp;\n    }\n\n    \n    function addNewRecord(\n        uint256 _hospitalId,\n        uint256 _patientId,\n        string memory _condition,\n        string memory _description,\n        string memory _allergies,\n        string memory _document\n    ) public onlyHospital {\n        require(patients[_patientId].id != 0, \"The patient does not exist\");\n        Record memory rec = Record(\n            recordId,\n            _hospitalId,\n            _patientId,\n            _condition,\n            _description,\n            _allergies,\n            _document\n        );\n        records[recordId] = rec;\n        patients[_patientId].records.push(recordId);\n        recordId++;\n    }\n\n    \n    function addNewPatient(\n        uint256 _id,\n        string memory _name,\n        string memory _gender,\n        string memory _bloodGroup,\n        string memory _dob,\n        uint256 _phoneNumber,\n        string memory _physicalAddress,\n        string memory _profilePicture,\n        address _walletAddress\n    ) public onlyHospital {\n        require(\n            patients[_id].id == 0 && patientToId[_walletAddress] == 0,\n            \"Patient already exists\"\n        );\n        uint256[] memory _records;\n        patientToId[_walletAddress] = _id;\n        patients[_id] = Patient(\n            _id,\n            _name,\n            _gender,\n            _bloodGroup,\n            _dob,\n            _phoneNumber,\n            _records,\n            _physicalAddress,\n            _profilePicture,\n            _walletAddress\n        );\n    }\n\n   \n    function addOrganization(\n        string memory _name,\n        address _walletAddress,\n        string memory _license\n    ) public onlyAdmin {\n        require(\n            organizationToId[_walletAddress] == 0,\n            \"Organization already exists\"\n        );\n        organizations[organizationId] = Organization(\n            organizationId,\n            _name,\n            _walletAddress,\n            _license\n        );\n        organizationToId[_walletAddress] = organizationId;\n\n        organizationId++;\n    }\n\n    \n    function getOrganizationById(uint256 _id)\n        public\n        view\n        returns (Organization memory)\n    {\n        require(organizations[_id].id != 0, \"No such organization exists\");\n        return organizations[_id];\n    }\n\n   \n    function getOrganizationByAddress(address _addr)\n        public\n        view\n        returns (Organization memory)\n    {\n        uint256 _id = organizationToId[_addr];\n        require(\n            _id != 0 && organizations[_id].id != 0,\n            \"No such organization exists\"\n        );\n        return organizations[_id];\n    }\n\n    \n    function addAuthByAddress(address addr) public onlyPatient {\n        uint256 _id = patientToId[msg.sender];\n        authorised[_id][addr] = true;\n    }\n\n    function addAuthById(uint256 _id) public onlyPatient {\n        Organization memory org = organizations[_id];\n        require(org.id != 0, \"No such organization found\");\n        uint256 patientId = patientToId[msg.sender];\n        authorised[patientId][org.walletAddress] = true;\n    }\n\n    function revokeAuthByAddress(address addr) public onlyPatient {\n        uint256 _id = patientToId[msg.sender];\n        require(authorised[_id][addr] == true, \"Already not authorised\");\n\n        authorised[_id][addr] = false;\n    }\n\n    \n    function revokeAuthById(uint256 _id) public onlyPatient {\n        Organization memory org = organizations[_id];\n        require(org.id != 0, \"No such organization found\");\n        uint256 patientId = patientToId[msg.sender];\n\n        require(\n            authorised[patientId][org.walletAddress] == true,\n            \"Already not authorised\"\n        );\n        authorised[patientId][org.walletAddress] = false;\n    }\n\n    \n    function getPatientDetails(uint256 _id)\n        public\n        view\n        onlyAuthorised(_id)\n        returns (\n            uint256,\n            string memory,\n            string memory,\n            string memory,\n            string memory,\n            uint256,\n            string memory,\n            string memory,\n            address\n        )\n    {\n        require(_id != 0 && patients[_id].id != 0, \"No such patient found\");\n        Patient memory pat = patients[_id];\n        return (\n            pat.id,\n            pat.name,\n            pat.gender,\n            pat.bloodGroup,\n            pat.DOB,\n            pat.phoneNumber,\n            pat.physicalAddress,\n            pat.profilePicture,\n            pat.walletAddress\n        );\n    }\n\n    \n    function getPatientRecords(uint256 _id)\n        public\n        view\n        onlyAuthorised(_id)\n        returns (\n            uint256[] memory,\n            string[] memory,\n            string[] memory,\n            string[] memory,\n            string[] memory\n        )\n    {\n        Patient memory patient = patients[_id];\n        require(_id != 0 && patient.id != 0, \"No such patient found\");\n        require(patient.records.length > 0, \"No record found\");\n\n        uint256 len = patient.records.length;\n        uint256[] memory rec = patient.records;\n\n        uint256[] memory hosId = new uint256[](len);\n        string[] memory cond = new string[](len);\n        string[] memory desc = new string[](len);\n        string[] memory aller = new string[](len);\n        string[] memory docs = new string[](len);\n\n        for (uint256 i = 0; i < rec.length; i++) {\n            Record memory curr = records[rec[i]];\n            hosId[i] = curr.hospitalId;\n            cond[i] = curr.condition;\n            desc[i] = curr.description;\n            aller[i] = curr.allergies;\n            docs[i] = curr.Document;\n        }\n\n        return (hosId, cond, desc, aller, docs);\n    }\n\n    function getHospitals()\n        public\n        view\n        returns (\n            uint256[] memory,\n            string[] memory,\n            string[] memory,\n            string[] memory\n        )\n            \n    {\n        //uint256 len = hospitals.length;\n        //uint256[] memory hosId = new uint256[](len);\n        //string[] memory name = new string[](len);\n        //string[] memory add = new string[](len);\n        //string[] memory license = new string[](len);\n        //return (hosId,name,add,license);\n        \n    }\n\n    modifier onlyAuthorised(uint256 _id) {\n        uint256 hosId = hospitalToId[msg.sender];\n        require(\n            (authorised[_id][msg.sender] == true) ||\n                (hosId != 0 && hospitals[hosId].id != 0) ||\n                (_id != 0 && patients[_id].walletAddress == msg.sender),\n            \"Only authorised addressed\"\n        );\n        _;\n    }\n\n    modifier onlyPatient() {\n        uint256 _id = patientToId[msg.sender];\n        require(_id != 0 && patients[_id].id != 0, \"Only patient is allowed\");\n        _;\n    }\n\n    modifier onlyHospital() {\n        uint256 _id = hospitalToId[msg.sender];\n        require(\n            _id != 0 && hospitals[_id].id != 0,\n            \"Only hospitals are allowed\"\n        );\n        _;\n    }\n}\n",
  "sourcePath": "C:\\Users\\sa760\\Desktop\\EHR FINAL\\contracts\\Medishield.sol",
  "compiler": {
    "name": "solc",
    "version": "0.5.16+commit.9c3226ce.Emscripten.clang"
  },
  "schemaVersion": "3.4.16",
  "updatedAt": "2025-05-13T04:01:56.612Z",
  "networkType": "ethereum",
  "devdoc": {
    "methods": {}
  },
  "userdoc": {
    "methods": {}
  }
}